:020000040000FA
:060000000A128A11FC2F18
:100F84008316031388018312031388010814203085
:100F9400F200B530F100CB30F000F00BCF2FF10BA5
:100FA400CF2FF20BCF2F8312031308108814203095
:100FB400F200B530F100CB30F000F00BDF2FF10B75
:100FC400DF2FF20BDF2F8312031388100815203054
:100FD400F200B530F100CB30F000F00BEF2FF10B45
:100FE400EF2FF20BEF2F831203130811C82F0A12ED
:0C0FF4008A11002883010A128A11C22F02
:02400E00FB3F76
:00000001FF
